:0400000002002132A7
:01000B0032C2
:0100130032BA
:03001B000201637C
:0301110002001ECB
:03001E00020114C8
:2001140075890112079B12014D12015675502775510A755280E4F553F554755503F556902F
:200134000A1B75F08012075C12018E12036E12030D1204971205D880EF758C00758A00D209
:200154008C22758D00758B00D28ED2ABD2AF22C0E0C007C006C0D075D000C28F758D007591
:1A0174008B00D28EAE32AF3374012EF532E43FF533D0D0D006D007D0E03280
:1A0A1B0048656C6C6F20576F726C6400426F62206973204772656174210062
:20007A007508C0750900750AF9750B00750CA4750D00750EB0750F0075109975110075122A
:20009A00927513007514827515007516F8751700751880751900751A90751B00E4F51CF554
:1100BA001DF51EF51FF520F521F522F523F524F52564
:20018E0074F0552EFE7F00BEF005BF000280030202497E017F007C007D00BE0105BF00022D
:2001AE008003020249C3E524940FE525648094A74003020249C374049C74808DF063F0801E
:2001CE0095F05034E4F557F558C3E5579404E55864809480501BE5572557FAE55833EA2424
:2001EE001CF876000876000557E4B557DC055880D8E4F524F5258043EC2CFAED33EA241CD6
:20020E00F9870209870319BA0910BB000D7700097700190CBC00190D80168702098703193E
:20022E00EE2AFAEF3BFBA70209A703197E007F000524E4B5240205250201A8740F552EFE46
:20024E007F00BE0F05BF000280030203077E017F007C007D00BE0105BF00028003020307E4
:20026E00C3E4952474808525F063F08095F04003020307C374049C74808DF063F08095F03B
:20028E005034E4F559F55AC3E5599404E55A64809480501BE5592559FAE55A33EA241CF8C6
:2002AE0076000876000559E4B559DC055A80D8E4F524F5258043EC2CFAED33EA241CF987A3
:2002CE000209870319EA4B700D7709097700190CBC001A0D8017870209870319EAC39EFA97
:2002EE00EB9FFBA70209A703197E007F00152474FFB524021525020263E4F52EF52F22E59F
:20030E001C251CFEE51D33EE2408F98780C2A3900001120466D2A3E51E25E0FEE51F33EE13
:20032E002408F98780C2A2900001120466D2A2E52025E0FEE52133EE2408F98780C2A19050
:20034E000001120466D2A1E52225E0FEE52333EE2408F98780C2A0900001120466D2A0223D
:20036E007E007F0020B50A0526E4B5261D05278019C37404952674808527F063F08095F0E9
:20038E0050087E08E4FFF526F52720B40A0528E4B5281D05298019C374049528748085290D
:2003AE00F063F08095F05008430604E4F528F52920B30A052AE4B52A1D052B8019C3740433
:2003CE00952A7480852BF063F08095F05008430602E4F52AF52B20B20A052CE4B52C1D05AA
:2003EE002D8019C37404952C7480852DF063F08095F05008430601E4F52CF52D8E828F8354
:20040E00020411AE82AF83EE30E006752E0F752F00EFA2E713CE13CEFFEE30E006752EF02B
:20042E00752F00EFA2E713CE13CEA2E713CE13CEEE30E016853082853183A37557037558C2
:0B044E00001209E18582308583312215
:0D00CB00E4F52EF52FF530F531F532F53363
:20045900C28C758C00758A00C28DD28C22AE82AF83C3E49E74808FF063F08095F0501E7C0A
:1E0479007D7D001CBCFF011DC3E49C74808DF063F08095F040ED1EBEFF011F80D422CC
:1900D800753601753700E4F538F539753C01F53D753E80F53FF540F541C2
:20049700C3E5329432E53364809480500122AE30AF31BE0005BF00028014BE0105BF0002C7
:2004B700802FBE0206BF000302054D0205CDE534F4F590853482853583A37557007558017F
:2004D7001209E1858234858335E4F53AF53B0205D2E536F4F5907480B53606E4B5370280AA
:2004F70002800DE53845397007753801F539801F7401B5360614B53702800280127401B523
:20051700380614B5390280028005E4F538F539E5384539700DE5362536F536E53733F53708
:20053700800CE537A2E713C53613C536F537E4F53AF53B0205D2AF3CE53E4207EFF4F59050
:200557007401B53E0614B53F028002800DE54045417007754001F541801F7401B53C0614D0
:20057700B53D02800280127401B5400614B5410280028005E4F540F541E54045417019E571
:200597003C253CF53CE53D33F53DE53FA2E713C53E13C53EF53F8017E53DA2E713C53C1379
:2005B700C53CF53DE53E253EF53EE53F33F53FE4F53AF53B8005E4F53AF53BE4F532F5336F
:0105D7002201
:2000F100E4F542F543754440F545754641F547F548F549F54AF54BF54CF54D754E01F54FAC
:2005D800AE42AF43BE0005BF00028018BE0105BF00028022BE0205BF0002801FBE0324BF15
:2005F8000021801C308D1C1204591206D285428285438302062B1206DB800812070880030E
:20061800120711AE42AF43EE4F60078E828F8302062B22AE82AF83BE0005BF0002801BBE5C
:200638000105BF00028035BE0206BF00030206C5BE0306BF00030206CB22754201E4F5437F
:20065800F548F549E54E454F7009AE46AF478E4C8F4D22AE44AF458E4C8F4D22AE48AF4959
:20067800EE4F7011E54E454F700B754801F549754203F54322EE4F702D7401B54E0614B531
:200698004F0280028020754801E4F549F54EF54FE54AF4FEE54BF45306F07F008E4C8F4DA5
:2006B8007542018F432275420275430022E4F542F5432275420275430022D2A6D2A7C2A682
:2006D800C2A7227F00BF0800501F7480554C7E004E24FF92A6D2A7C2A7E54C25E0FDE54DBF
:2006F80033FE8D4C8E4D0F80DCD2A6D2A7C2A722C2A6D2A7D2A6C2A7227F00BF080050227A
:20071800D2A7E54A25E0FDE54B33FE8D4A8E4B30A60B7401454AFDAE4B8D4A8E4BC2A70F03
:2007380080D9D2A6D2A7C2A7AE4AE54BC454F0CEC4CE6ECE54F0CE6EFF8E4A8F4B754E012D
:04075800754F0022B7
:20075C00AD82AE83AFF074804553F582855483C007C006C0051207D5D005D006D0078D824E
:20077C008E838FF01208F574C04555F5828556831207D58550828551838552F00208F59027
:20079C0000021207D59000281207D590000C1207D59000061207D59000010207D5D2A6D2E0
:2007BC00A7C2A6C2A7900001020466C2A6D2A7D2A6C2A7900001020466AE82AF838E04EF06
:2007DC00C454F0CCC4CC6CCC54F0CC6C5304F07D005306F07F00C007C006C005C00412072A
:2007FC00B990004E12093012096CD004D005D006D007740C4EF5828F83C007C006C005C0B5
:20081C000412093012096CD004D005D006D00774084EF5828F83C005C00412093012096CE2
:20083C00D004D005740C4CF5828D83C005C00412093012096CD004D00574084CF5828D834D
:20085C0012093012096C0207C7AE82AF838E04EFC454F0CCC4CC6CCC54F0CC6C5304F07D1B
:20087C00005306F07F00C007C006C005C0041207B990004E12093012096CD004D005D0067D
:20089C00D007740D4EF5828F83C007C006C005C00412093012096CD004D005D006D007745B
:2008BC00094EF5828F83C005C00412093012096CD004D005740D4CF5828D83C005C0041249
:2008DC00093012096CD004D00574094CF5828D8312093012096C0207C7AD82AE83AFF07C26
:2008FC00008D828E838FF01209C5FB6026EC24EF40210DBD00010E7A008B828A83C007C088
:20091C0006C005C004120865D004D005D006D0070C80CE22AE82AF837D00BD0800502B8D2F
:20093C00F005F07B80E4FC3392D28008A2D2EC13FCEB13FBD5F0F5EE5203EF5204EB4C24B7
:1C095C00FF92A6D2A7C2A70D80D0900001020466D2A6D2A7C2A7900001020466B5
:06005000E478FFF6D8FD84
:20002E007900E94400601B7A00900A35780175A000E493F2A308B8000205A0D9F4DAF27539
:02004E00A0FF11
:20097800E557455860467A01E55725E0F557E558334012F558E5829557E583955840030AD4
:2009980080E6C3E55813F558E55713F557C3E5829557F5F0E58395584005F58385F082C317
:0D09B800E55813F558E55713F557DAE1221D
:200056007800E84400600A790175A000E4F309D8FC7800E84400600C7900900001E4F0A3A8
:04007600D8FCD9FADF
:0D00210075815A120A17E582600302001E65
:1C09C50020F71430F6148883A88220F507E6A88375830022E280F7E49322E02241
:2009E100C2D5E58330E70DD2D5E4C39582F582E49583F583E55830E70BE4C39557F557E461
:160A01009558F55812097830D50BE4C39582F582E49583F5832237
:040A170075820022C2
:00000001FF
