:03000000020006F5
:0300F20002000306
:030003000200F503
:2000F50012075F120128754EEB754F09755080E4F551F552755303F5549009DF75F0801284
:1F01150007201201341203141202B312043D12059C80EF758901758C00758A00D28C2279
:1A09DF0048656C6C6F20576F726C6400426F6220697320477265617421009F
:20005F007508C0750900750AF9750B00750CA4750D00750EB0750F00751099751100751245
:20007F00927513007514827515007516F8751700751880751900751A90751B00E4F51CF56F
:11009F001DF51EF51FF520F521F522F523F524F5257F
:2001340074F0552EFE7F00BEF005BF000280030201EF7E017F007C007D00BE0105BF0002E2
:2001540080030201EFC3E524940FE525648094A740030201EFC374049C74808DF063F0802E
:2001740095F05034E4F555F556C3E5559404E55664809480501BE5552555FAE55633EA248C
:200194001CF876000876000555E4B555DC055680D8E4F524F5258043EC2CFAED33EA241C36
:2001B400F9870209870319BA0910BB000D7700097700190CBC00190D801687020987031999
:2001D400EE2AFAEF3BFBA70209A703197E007F000524E4B52402052502014E740F552EFEFB
:2001F4007F00BE0F05BF000280030202AD7E017F007C007D00BE0105BF000280030202ADF5
:20021400C3E4952474808525F063F08095F040030202ADC374049C74808DF063F08095F0F0
:200234005034E4F557F558C3E5579404E55864809480501BE5572557FAE55833EA241CF82E
:2002540076000876000557E4B557DC055880D8E4F524F5258043EC2CFAED33EA241CF98703
:200274000209870319EA4B700D7709097700190CBC001A0D8017870209870319EAC39EFAF1
:20029400EB9FFBA70209A703197E007F00152474FFB524021525020209E4F52EF52F22E553
:2002B4001C251CFEE51D33EE2408F98780C2A390000112040CD2A3E51E25E0FEE51F33EEC8
:2002D4002408F98780C2A290000112040CD2A2E52025E0FEE52133EE2408F98780C2A19005
:2002F400000112040CD2A1E52225E0FEE52333EE2408F98780C2A090000112040CD2A0224C
:200314007E007F0020B50A0526E4B5261D05278019C37404952674808527F063F08095F043
:2003340050087E08E4FFF526F52720B40A0528E4B5281D05298019C3740495287480852967
:20035400F063F08095F05008430604E4F528F52920B30A052AE4B52A1D052B8019C374048D
:20037400952A7480852BF063F08095F05008430602E4F52AF52B20B20A052CE4B52C1D0504
:200394002D8019C37404952C7480852DF063F08095F05008430601E4F52CF52D8E828F83AE
:2003B4000203B7AE82AF83EE30E006752E0F752F00EFA2E713CE13CEFFEE30E006752EF0E1
:2003D400752F00EFA2E713CE13CEA2E713CE13CEEE30E016853082853183A3755503755621
:0B03F400001209A585823085833122AC
:0900B000E4F52EF52FF530F531D1
:2003FF00C28C758C00758A00C28DD28C22AE82AF83C3E49E74808FF063F08095F0501E7C65
:1E041F007D7D001CBCFF011DC3E49C74808DF063F08095F040ED1EBEFF011F80D42226
:1900B900753401753500E4F536F537753A01F53B753C80F53DF53EF53FF5
:20043D00C3E5389432E5396480948050090538E4B53802053922AE30AF31BE0005BF0002D8
:20045D008014BE0105BF0002802DBE0206BF00030204F7020576E532F4F590853282853336
:20047D0083A37555007556011209A5858232858333E4F538F53922E534F4F5907480B5349F
:20049D0006E4B535028002800DE53645377007753601F537801F7401B5340614B5350280F1
:2004BD000280127401B5360614B5370280028005E4F536F537E5364537700DE5342534F566
:2004DD0034E53533F535800CE535A2E713C53413C534F535E4F538F53922AF3AE53C42072F
:2004FD00EFF4F5907401B53C0614B53D028002800DE53E453F7007753E01F53F801F7401DA
:20051D00B53A0614B53B02800280127401B53E0614B53F0280028005E4F53EF53FE53E457D
:20053D003F7019E53A253AF53AE53B33F53BE53DA2E713C53C13C53CF53D8017E53BA2E761
:1F055D0013C53A13C53AF53BE53C253CF53CE53D33F53DE4F538F53922E4F538F539222F
:20057C00D28690000212040CD28790000212040CC28690000212040CC28790000202040C5D
:2000D200E4F540F541754240F543754441F545F546F547F548F549F54AF54B754C01F54DE7
:20059C00AE40AF41BE0005BF00028018BE0105BF00028022BE0205BF0002801FBE0324BF55
:2005BC000021801C308D1C1203FF1206968540828541830205EF12069F80081206CC80039B
:2005DC001206D5AE40AF41EE4F60078E828F830205EF22AE82AF83BE0005BF0002801BBE17
:2005FC000105BF00028035BE0206BF0003020689BE0306BF000302068F22754001E4F54138
:20061C00F546F547E54C454D7009AE44AF458E4A8F4B22AE42AF438E4A8F4B22AE46AF47B1
:20063C00EE4F7011E54C454D700B754601F547754003F54122EE4F702D7401B54C0614B57B
:20065C004D0280028020754601E4F547F54CF54DE548F4FEE549F45306F07F008E4A8F4BF3
:20067C007540018F412275400275410022E4F540F5412275400275410022D2A6D2A7C2A6CE
:20069C00C2A7227F00BF0800501F7480554A7E004E24FF92A6D2A7C2A7E54A25E0FDE54B01
:2006BC0033FE8D4A8E4B0F80DCD2A6D2A7C2A722C2A6D2A7D2A6C2A7227F00BF08005022BA
:2006DC00D2A7E54825E0FDE54933FE8D488E4930A60B74014548FDAE498D488E49C2A70F50
:2006FC0080D9D2A6D2A7C2A7AE48E549C454F0CEC4CE6ECE54F0CE6EFF8E488F49754C0174
:04071C00754D0022F5
:20072000AD82AE83AFF074804551F582855283C007C006C005120799D005D006D0078D82CA
:200740008E838FF01208B974C04553F582855483120799854E82854F838550F00208B99021
:20076000000212079990002812079990000C120799900006120799900001020799D2A6D248
:20078000A7C2A6C2A790000102040CC2A6D2A7D2A6C2A790000102040CAE82AF838E04EFF6
:2007A000C454F0CCC4CC6CCC54F0CC6C5304F07D005306F07F00C007C006C005C004120766
:2007C0007D90004E1208F4120930D004D005D006D007740C4EF5828F83C007C006C005C0A6
:2007E000041208F4120930D004D005D006D00774084EF5828F83C005C0041208F412093011
:20080000D004D005740C4CF5828D83C005C0041208F4120930D004D00574084CF5828D8302
:200820001208F412093002078BAE82AF838E04EFC454F0CCC4CC6CCC54F0CC6C5304F07D0C
:20084000005306F07F00C007C006C005C00412077D90004E1208F4120930D004D005D0066E
:20086000D007740D4EF5828F83C007C006C005C0041208F4120930D004D005D006D0077410
:20088000094EF5828F83C005C0041208F4120930D004D005740D4CF5828D83C005C00412FE
:2008A00008F4120930D004D00574094CF5828D831208F412093002078BAD82AE83AFF07C90
:2008C000008D828E838FF0120989FB6026EC24EF40210DBD00010E7A008B828A83C007C000
:2008E00006C005C004120829D004D005D006D0070C80CE22AE82AF837D00BD0800502B8DA8
:20090000F005F07B80E4FC3392D28008A2D2EC13FCEB13FBD5F0F5EE5203EF5204EB4C24F3
:1C092000FF92A6D2A7C2A70D80D090000102040CD2A6D2A7C2A790000102040CA5
:06003500E478FFF6D8FD9F
:200013007900E94400601B7A009009F9780175A000E493F2A308B8000205A0D9F4DAF27591
:02003300A0FF2C
:20093C00E555455660467A01E55525E0F555E556334012F556E5829555E583955640030A20
:20095C0080E6C3E55613F556E55513F555C3E5829555F5F0E58395564005F58385F082C35F
:0D097C00E55613F556E55513F555DAE12261
:20003B007800E84400600A790175A000E4F309D8FC7800E84400600C7900900001E4F0A3C3
:04005B00D8FCD9FAFA
:0D0006007581581209DBE5826003020003DA
:1C09890020F71430F6148883A88220F507E6A88375830022E280F7E49322E0227D
:2009A500C2D5E58330E70DD2D5E4C39582F582E49583F583E55630E70BE4C39555F555E4A3
:1609C5009556F55612093C30D50BE4C39582F582E49583F58322B4
:0409DB0075820022FF
:00000001FF
