:03000000020006F5
:03005F0002000399
:0300030002006296
:200062001200001200957500B1750100750280E4F500F501750003F5019000A575F08012C9
:1F008200000012000012000012000012000012000080EF758901758C00758A00D28C2217
:1A00A50048656C6C6F20576F726C6400426F622069732047726561742100E2
:06003500E478FFF6D8FD9F
:200013007900E94400601B7A009000BF780175A000E493F2A308B8000205A0D9F4DAF275D4
:02003300A0FF2C
:20003B007800E84400600A790175A000E4F309D8FC7800E84400600C7900900001E4F0A3C3
:04005B00D8FCD9FAFA
:0D0006007581071200A1E58260030200036E
:0400A1007582002242
:00000001FF
